{
  "_format": "hh-sol-artifact-1",
  "contractName": "Web3Mint",
  "sourceName": "contracts/Web3Mint.sol",
  "abi": [
    {
      "inputs": [],
      "stateMutability": "nonpayable",
      "type": "constructor"
    },
    {
      "anonymous": false,
      "inputs": [
        {
          "indexed": true,
          "internalType": "address",
          "name": "owner",
          "type": "address"
        },
        {
          "indexed": true,
          "internalType": "address",
          "name": "approved",
          "type": "address"
        },
        {
          "indexed": true,
          "internalType": "uint256",
          "name": "tokenId",
          "type": "uint256"
        }
      ],
      "name": "Approval",
      "type": "event"
    },
    {
      "anonymous": false,
      "inputs": [
        {
          "indexed": true,
          "internalType": "address",
          "name": "owner",
          "type": "address"
        },
        {
          "indexed": true,
          "internalType": "address",
          "name": "operator",
          "type": "address"
        },
        {
          "indexed": false,
          "internalType": "bool",
          "name": "approved",
          "type": "bool"
        }
      ],
      "name": "ApprovalForAll",
      "type": "event"
    },
    {
      "anonymous": false,
      "inputs": [
        {
          "indexed": true,
          "internalType": "address",
          "name": "from",
          "type": "address"
        },
        {
          "indexed": true,
          "internalType": "address",
          "name": "to",
          "type": "address"
        },
        {
          "indexed": true,
          "internalType": "uint256",
          "name": "tokenId",
          "type": "uint256"
        }
      ],
      "name": "Transfer",
      "type": "event"
    },
    {
      "inputs": [
        {
          "internalType": "address",
          "name": "to",
          "type": "address"
        },
        {
          "internalType": "uint256",
          "name": "tokenId",
          "type": "uint256"
        }
      ],
      "name": "approve",
      "outputs": [],
      "stateMutability": "nonpayable",
      "type": "function"
    },
    {
      "inputs": [
        {
          "internalType": "address",
          "name": "owner",
          "type": "address"
        }
      ],
      "name": "balanceOf",
      "outputs": [
        {
          "internalType": "uint256",
          "name": "",
          "type": "uint256"
        }
      ],
      "stateMutability": "view",
      "type": "function"
    },
    {
      "inputs": [
        {
          "internalType": "uint256",
          "name": "tokenId",
          "type": "uint256"
        }
      ],
      "name": "getApproved",
      "outputs": [
        {
          "internalType": "address",
          "name": "",
          "type": "address"
        }
      ],
      "stateMutability": "view",
      "type": "function"
    },
    {
      "inputs": [
        {
          "internalType": "address",
          "name": "owner",
          "type": "address"
        },
        {
          "internalType": "address",
          "name": "operator",
          "type": "address"
        }
      ],
      "name": "isApprovedForAll",
      "outputs": [
        {
          "internalType": "bool",
          "name": "",
          "type": "bool"
        }
      ],
      "stateMutability": "view",
      "type": "function"
    },
    {
      "inputs": [
        {
          "internalType": "string",
          "name": "name",
          "type": "string"
        },
        {
          "internalType": "string",
          "name": "imageUrl",
          "type": "string"
        }
      ],
      "name": "mintIpfsNFT",
      "outputs": [],
      "stateMutability": "nonpayable",
      "type": "function"
    },
    {
      "inputs": [],
      "name": "name",
      "outputs": [
        {
          "internalType": "string",
          "name": "",
          "type": "string"
        }
      ],
      "stateMutability": "view",
      "type": "function"
    },
    {
      "inputs": [
        {
          "internalType": "uint256",
          "name": "tokenId",
          "type": "uint256"
        }
      ],
      "name": "ownerOf",
      "outputs": [
        {
          "internalType": "address",
          "name": "",
          "type": "address"
        }
      ],
      "stateMutability": "view",
      "type": "function"
    },
    {
      "inputs": [
        {
          "internalType": "address",
          "name": "from",
          "type": "address"
        },
        {
          "internalType": "address",
          "name": "to",
          "type": "address"
        },
        {
          "internalType": "uint256",
          "name": "tokenId",
          "type": "uint256"
        }
      ],
      "name": "safeTransferFrom",
      "outputs": [],
      "stateMutability": "nonpayable",
      "type": "function"
    },
    {
      "inputs": [
        {
          "internalType": "address",
          "name": "from",
          "type": "address"
        },
        {
          "internalType": "address",
          "name": "to",
          "type": "address"
        },
        {
          "internalType": "uint256",
          "name": "tokenId",
          "type": "uint256"
        },
        {
          "internalType": "bytes",
          "name": "data",
          "type": "bytes"
        }
      ],
      "name": "safeTransferFrom",
      "outputs": [],
      "stateMutability": "nonpayable",
      "type": "function"
    },
    {
      "inputs": [
        {
          "internalType": "address",
          "name": "operator",
          "type": "address"
        },
        {
          "internalType": "bool",
          "name": "approved",
          "type": "bool"
        }
      ],
      "name": "setApprovalForAll",
      "outputs": [],
      "stateMutability": "nonpayable",
      "type": "function"
    },
    {
      "inputs": [
        {
          "internalType": "bytes4",
          "name": "interfaceId",
          "type": "bytes4"
        }
      ],
      "name": "supportsInterface",
      "outputs": [
        {
          "internalType": "bool",
          "name": "",
          "type": "bool"
        }
      ],
      "stateMutability": "view",
      "type": "function"
    },
    {
      "inputs": [],
      "name": "symbol",
      "outputs": [
        {
          "internalType": "string",
          "name": "",
          "type": "string"
        }
      ],
      "stateMutability": "view",
      "type": "function"
    },
    {
      "inputs": [
        {
          "internalType": "uint256",
          "name": "tokenId",
          "type": "uint256"
        }
      ],
      "name": "tokenURI",
      "outputs": [
        {
          "internalType": "string",
          "name": "",
          "type": "string"
        }
      ],
      "stateMutability": "view",
      "type": "function"
    },
    {
      "inputs": [
        {
          "internalType": "address",
          "name": "from",
          "type": "address"
        },
        {
          "internalType": "address",
          "name": "to",
          "type": "address"
        },
        {
          "internalType": "uint256",
          "name": "tokenId",
          "type": "uint256"
        }
      ],
      "name": "transferFrom",
      "outputs": [],
      "stateMutability": "nonpayable",
      "type": "function"
    }
  ],
  "bytecode": "0x60806040523480156200001157600080fd5b506040518060400160405280600781526020017f4e46544e616d65000000000000000000000000000000000000000000000000008152506040518060400160405280600881526020017f4e4654496d61676500000000000000000000000000000000000000000000000081525081600090816200008f91906200041f565b508060019081620000a191906200041f565b505050620000d3604051806060016040528060348152602001620037a760349139620000d960201b62000aaa1760201c565b620005b9565b6200017981604051602401620000f0919062000595565b6040516020818303038152906040527f41304fac000000000000000000000000000000000000000000000000000000007bffffffffffffffffffffffffffffffffffffffffffffffffffffffff19166020820180517bffffffffffffffffffffffffffffffffffffffffffffffffffffffff83818316178352505050506200017c60201b60201c565b50565b60008151905060006a636f6e736f6c652e6c6f679050602083016000808483855afa5050505050565b600081519050919050565b7f4e487b7100000000000000000000000000000000000000000000000000000000600052604160045260246000fd5b7f4e487b7100000000000000000000000000000000000000000000000000000000600052602260045260246000fd5b600060028204905060018216806200022757607f821691505b6020821081036200023d576200023c620001df565b5b50919050565b60008190508160005260206000209050919050565b60006020601f8301049050919050565b600082821b905092915050565b600060088302620002a77fffffffffffffffffffffffffffffffffffffffffffffffffffffffffffffffff8262000268565b620002b3868362000268565b95508019841693508086168417925050509392505050565b6000819050919050565b6000819050919050565b600062000300620002fa620002f484620002cb565b620002d5565b620002cb565b9050919050565b6000819050919050565b6200031c83620002df565b620003346200032b8262000307565b84845462000275565b825550505050565b600090565b6200034b6200033c565b6200035881848462000311565b505050565b5b8181101562000380576200037460008262000341565b6001810190506200035e565b5050565b601f821115620003cf57620003998162000243565b620003a48462000258565b81016020851015620003b4578190505b620003cc620003c38562000258565b8301826200035d565b50505b505050565b600082821c905092915050565b6000620003f460001984600802620003d4565b1980831691505092915050565b60006200040f8383620003e1565b9150826002028217905092915050565b6200042a82620001a5565b67ffffffffffffffff811115620004465762000445620001b0565b5b6200045282546200020e565b6200045f82828562000384565b600060209050601f83116001811462000497576000841562000482578287015190505b6200048e858262000401565b865550620004fe565b601f198416620004a78662000243565b60005b82811015620004d157848901518255600182019150602085019450602081019050620004aa565b86831015620004f15784890151620004ed601f891682620003e1565b8355505b6001600288020188555050505b505050505050565b600082825260208201905092915050565b60005b83811015620005375780820151818401526020810190506200051a565b60008484015250505050565b6000601f19601f8301169050919050565b60006200056182620001a5565b6200056d818562000506565b93506200057f81856020860162000517565b6200058a8162000543565b840191505092915050565b60006020820190508181036000830152620005b1818462000554565b905092915050565b6131de80620005c96000396000f3fe608060405234801561001057600080fd5b50600436106100ea5760003560e01c806370a082311161008c578063b88d4fde11610066578063b88d4fde1461025b578063c87b56dd14610277578063e985e9c5146102a7578063eb00195d146102d7576100ea565b806370a08231146101f157806395d89b4114610221578063a22cb4651461023f576100ea565b8063095ea7b3116100c8578063095ea7b31461016d57806323b872dd1461018957806342842e0e146101a55780636352211e146101c1576100ea565b806301ffc9a7146100ef57806306fdde031461011f578063081812fc1461013d575b600080fd5b61010960048036038101906101049190611be9565b6102f3565b6040516101169190611c31565b60405180910390f35b6101276103d5565b6040516101349190611cdc565b60405180910390f35b61015760048036038101906101529190611d34565b610467565b6040516101649190611da2565b60405180910390f35b61018760048036038101906101829190611de9565b6104ad565b005b6101a3600480360381019061019e9190611e29565b6105c4565b005b6101bf60048036038101906101ba9190611e29565b610624565b005b6101db60048036038101906101d69190611d34565b610644565b6040516101e89190611da2565b60405180910390f35b61020b60048036038101906102069190611e7c565b6106ca565b6040516102189190611eb8565b60405180910390f35b610229610781565b6040516102369190611cdc565b60405180910390f35b61025960048036038101906102549190611eff565b610813565b005b61027560048036038101906102709190612074565b610829565b005b610291600480360381019061028c9190611d34565b61088b565b60405161029e9190611cdc565b60405180910390f35b6102c160048036038101906102bc91906120f7565b61093b565b6040516102ce9190611c31565b60405180910390f35b6102f160048036038101906102ec91906121d8565b6109cf565b005b60007f80ac58cd000000000000000000000000000000000000000000000000000000007bffffffffffffffffffffffffffffffffffffffffffffffffffffffff1916827bffffffffffffffffffffffffffffffffffffffffffffffffffffffff191614806103be57507f5b5e139f000000000000000000000000000000000000000000000000000000007bffffffffffffffffffffffffffffffffffffffffffffffffffffffff1916827bffffffffffffffffffffffffffffffffffffffffffffffffffffffff1916145b806103ce57506103cd82610b43565b5b9050919050565b6060600080546103e49061227f565b80601f01602080910402602001604051908101604052809291908181526020018280546104109061227f565b801561045d5780601f106104325761010080835404028352916020019161045d565b820191906000526020600020905b81548152906001019060200180831161044057829003601f168201915b5050505050905090565b600061047282610bad565b6004600083815260200190815260200160002060009054906101000a900473ffffffffffffffffffffffffffffffffffffffff169050919050565b60006104b882610644565b90508073ffffffffffffffffffffffffffffffffffffffff168373ffffffffffffffffffffffffffffffffffffffff1603610528576040517f08c379a000000000000000000000000000000000000000000000000000000000815260040161051f90612322565b60405180910390fd5b8073ffffffffffffffffffffffffffffffffffffffff16610547610bf8565b73ffffffffffffffffffffffffffffffffffffffff161480610576575061057581610570610bf8565b61093b565b5b6105b5576040517f08c379a00000000000000000000000000000000000000000000000000000000081526004016105ac906123b4565b60405180910390fd5b6105bf8383610c00565b505050565b6105d56105cf610bf8565b82610cb9565b610614576040517f08c379a000000000000000000000000000000000000000000000000000000000815260040161060b90612446565b60405180910390fd5b61061f838383610d4e565b505050565b61063f83838360405180602001604052806000815250610829565b505050565b60008061065083611047565b9050600073ffffffffffffffffffffffffffffffffffffffff168173ffffffffffffffffffffffffffffffffffffffff16036106c1576040517f08c379a00000000000000000000000000000000000000000000000000000000081526004016106b8906124b2565b60405180910390fd5b80915050919050565b60008073ffffffffffffffffffffffffffffffffffffffff168273ffffffffffffffffffffffffffffffffffffffff160361073a576040517f08c379a000000000000000000000000000000000000000000000000000000000815260040161073190612544565b60405180910390fd5b600360008373ffffffffffffffffffffffffffffffffffffffff1673ffffffffffffffffffffffffffffffffffffffff168152602001908152602001600020549050919050565b6060600180546107909061227f565b80601f01602080910402602001604051908101604052809291908181526020018280546107bc9061227f565b80156108095780601f106107de57610100808354040283529160200191610809565b820191906000526020600020905b8154815290600101906020018083116107ec57829003601f168201915b5050505050905090565b61082561081e610bf8565b8383611084565b5050565b61083a610834610bf8565b83610cb9565b610879576040517f08c379a000000000000000000000000000000000000000000000000000000000815260040161087090612446565b60405180910390fd5b610885848484846111f0565b50505050565b6060600061090b600684815481106108a6576108a5612564565b5b90600052602060002090600202016000016108c08561124c565b600686815481106108d4576108d3612564565b5b90600052602060002090600202016001016040516020016108f7939291906128c7565b60405160208183030381529060405261131a565b905060008160405160200161092091906129bd565b60405160208183030381529060405290508092505050919050565b6000600560008473ffffffffffffffffffffffffffffffffffffffff1673ffffffffffffffffffffffffffffffffffffffff16815260200190815260200160002060008373ffffffffffffffffffffffffffffffffffffffff1673ffffffffffffffffffffffffffffffffffffffff16815260200190815260200160002060009054906101000a900460ff16905092915050565b60006109db60076114b1565b90506109e733826114bf565b6000604051806040016040528085815260200184815250905060068190806001815401808255809150506001900390600052602060002090600202016000909190919091506000820151816000019081610a419190612b76565b506020820151816001019081610a579190612b76565b505050610a6460076114dd565b610aa46040518060400160405280601c81526020017f4e465420772f2c204944203a2025732c206d696e746564203a2025730000000081525083336114f3565b50505050565b610b4081604051602401610abe9190611cdc565b6040516020818303038152906040527f41304fac000000000000000000000000000000000000000000000000000000007bffffffffffffffffffffffffffffffffffffffffffffffffffffffff19166020820180517bffffffffffffffffffffffffffffffffffffffffffffffffffffffff8381831617835250505050611592565b50565b60007f01ffc9a7000000000000000000000000000000000000000000000000000000007bffffffffffffffffffffffffffffffffffffffffffffffffffffffff1916827bffffffffffffffffffffffffffffffffffffffffffffffffffffffff1916149050919050565b610bb6816115bb565b610bf5576040517f08c379a0000000000000000000000000000000000000000000000000000000008152600401610bec906124b2565b60405180910390fd5b50565b600033905090565b816004600083815260200190815260200160002060006101000a81548173ffffffffffffffffffffffffffffffffffffffff021916908373ffffffffffffffffffffffffffffffffffffffff160217905550808273ffffffffffffffffffffffffffffffffffffffff16610c7383610644565b73ffffffffffffffffffffffffffffffffffffffff167f8c5be1e5ebec7d5bd14f71427d1e84f3dd0314c0f7b2291e5b200ac8c7c3b92560405160405180910390a45050565b600080610cc583610644565b90508073ffffffffffffffffffffffffffffffffffffffff168473ffffffffffffffffffffffffffffffffffffffff161480610d075750610d06818561093b565b5b80610d4557508373ffffffffffffffffffffffffffffffffffffffff16610d2d84610467565b73ffffffffffffffffffffffffffffffffffffffff16145b91505092915050565b8273ffffffffffffffffffffffffffffffffffffffff16610d6e82610644565b73ffffffffffffffffffffffffffffffffffffffff1614610dc4576040517f08c379a0000000000000000000000000000000000000000000000000000000008152600401610dbb90612cba565b60405180910390fd5b600073ffffffffffffffffffffffffffffffffffffffff168273ffffffffffffffffffffffffffffffffffffffff1603610e33576040517f08c379a0000000000000000000000000000000000000000000000000000000008152600401610e2a90612d4c565b60405180910390fd5b610e4083838360016115fc565b8273ffffffffffffffffffffffffffffffffffffffff16610e6082610644565b73ffffffffffffffffffffffffffffffffffffffff1614610eb6576040517f08c379a0000000000000000000000000000000000000000000000000000000008152600401610ead90612cba565b60405180910390fd5b6004600082815260200190815260200160002060006101000a81549073ffffffffffffffffffffffffffffffffffffffff02191690556001600360008573ffffffffffffffffffffffffffffffffffffffff1673ffffffffffffffffffffffffffffffffffffffff168152602001908152602001600020600082825403925050819055506001600360008473ffffffffffffffffffffffffffffffffffffffff1673ffffffffffffffffffffffffffffffffffffffff16815260200190815260200160002060008282540192505081905550816002600083815260200190815260200160002060006101000a81548173ffffffffffffffffffffffffffffffffffffffff021916908373ffffffffffffffffffffffffffffffffffffffff160217905550808273ffffffffffffffffffffffffffffffffffffffff168473ffffffffffffffffffffffffffffffffffffffff167fddf252ad1be2c89b69c2b068fc378daa952ba7f163c4a11628f55a4df523b3ef60405160405180910390a46110428383836001611602565b505050565b60006002600083815260200190815260200160002060009054906101000a900473ffffffffffffffffffffffffffffffffffffffff169050919050565b8173ffffffffffffffffffffffffffffffffffffffff168373ffffffffffffffffffffffffffffffffffffffff16036110f2576040517f08c379a00000000000000000000000000000000000000000000000000000000081526004016110e990612db8565b60405180910390fd5b80600560008573ffffffffffffffffffffffffffffffffffffffff1673ffffffffffffffffffffffffffffffffffffffff16815260200190815260200160002060008473ffffffffffffffffffffffffffffffffffffffff1673ffffffffffffffffffffffffffffffffffffffff16815260200190815260200160002060006101000a81548160ff0219169083151502179055508173ffffffffffffffffffffffffffffffffffffffff168373ffffffffffffffffffffffffffffffffffffffff167f17307eab39ab6107e8899845ad3d59bd9653f200f220920489ca2b5937696c31836040516111e39190611c31565b60405180910390a3505050565b6111fb848484610d4e565b61120784848484611608565b611246576040517f08c379a000000000000000000000000000000000000000000000000000000000815260040161123d90612e4a565b60405180910390fd5b50505050565b60606000600161125b8461178f565b01905060008167ffffffffffffffff81111561127a57611279611f49565b5b6040519080825280601f01601f1916602001820160405280156112ac5781602001600182028036833780820191505090505b509050600082602001820190505b60011561130f578080600190039150507f3031323334353637383961626364656600000000000000000000000000000000600a86061a8153600a858161130357611302612e6a565b5b049450600085036112ba575b819350505050919050565b60606000825190506000810361134257604051806020016040528060008152509150506114ac565b600060036002836113539190612ec8565b61135d9190612efc565b60046113699190612f2d565b9050600060208261137a9190612ec8565b67ffffffffffffffff81111561139357611392611f49565b5b6040519080825280601f01601f1916602001820160405280156113c55781602001600182028036833780820191505090505b5090506000604051806060016040528060408152602001613169604091399050600181016020830160005b868110156114695760038101905062ffffff818a015116603f8160121c168401518060081b905060ff603f83600c1c1686015116810190508060081b905060ff603f8360061c1686015116810190508060081b905060ff603f831686015116810190508060e01b905080845260048401935050506113f0565b50600386066001811461148357600281146114935761149e565b613d3d60f01b600283035261149e565b603d60f81b60018303525b508484525050819450505050505b919050565b600081600001549050919050565b6114d98282604051806020016040528060008152506118e2565b5050565b6001816000016000828254019250508190555050565b61158d83838360405160240161150b93929190612f6f565b6040516020818303038152906040527f1c7ec448000000000000000000000000000000000000000000000000000000007bffffffffffffffffffffffffffffffffffffffffffffffffffffffff19166020820180517bffffffffffffffffffffffffffffffffffffffffffffffffffffffff8381831617835250505050611592565b505050565b60008151905060006a636f6e736f6c652e6c6f679050602083016000808483855afa5050505050565b60008073ffffffffffffffffffffffffffffffffffffffff166115dd83611047565b73ffffffffffffffffffffffffffffffffffffffff1614159050919050565b50505050565b50505050565b60006116298473ffffffffffffffffffffffffffffffffffffffff1661193d565b15611782578373ffffffffffffffffffffffffffffffffffffffff1663150b7a02611652610bf8565b8786866040518563ffffffff1660e01b81526004016116749493929190613002565b6020604051808303816000875af19250505080156116b057506040513d601f19601f820116820180604052508101906116ad9190613063565b60015b611732573d80600081146116e0576040519150601f19603f3d011682016040523d82523d6000602084013e6116e5565b606091505b50600081510361172a576040517f08c379a000000000000000000000000000000000000000000000000000000000815260040161172190612e4a565b60405180910390fd5b805181602001fd5b63150b7a0260e01b7bffffffffffffffffffffffffffffffffffffffffffffffffffffffff1916817bffffffffffffffffffffffffffffffffffffffffffffffffffffffff191614915050611787565b600190505b949350505050565b600080600090507a184f03e93ff9f4daa797ed6e38ed64bf6a1f01000000000000000083106117ed577a184f03e93ff9f4daa797ed6e38ed64bf6a1f01000000000000000083816117e3576117e2612e6a565b5b0492506040810190505b6d04ee2d6d415b85acef8100000000831061182a576d04ee2d6d415b85acef810000000083816118205761181f612e6a565b5b0492506020810190505b662386f26fc10000831061185957662386f26fc10000838161184f5761184e612e6a565b5b0492506010810190505b6305f5e1008310611882576305f5e100838161187857611877612e6a565b5b0492506008810190505b61271083106118a757612710838161189d5761189c612e6a565b5b0492506004810190505b606483106118ca57606483816118c0576118bf612e6a565b5b0492506002810190505b600a83106118d9576001810190505b80915050919050565b6118ec8383611960565b6118f96000848484611608565b611938576040517f08c379a000000000000000000000000000000000000000000000000000000000815260040161192f90612e4a565b60405180910390fd5b505050565b6000808273ffffffffffffffffffffffffffffffffffffffff163b119050919050565b600073ffffffffffffffffffffffffffffffffffffffff168273ffffffffffffffffffffffffffffffffffffffff16036119cf576040517f08c379a00000000000000000000000000000000000000000000000000000000081526004016119c6906130dc565b60405180910390fd5b6119d8816115bb565b15611a18576040517f08c379a0000000000000000000000000000000000000000000000000000000008152600401611a0f90613148565b60405180910390fd5b611a266000838360016115fc565b611a2f816115bb565b15611a6f576040517f08c379a0000000000000000000000000000000000000000000000000000000008152600401611a6690613148565b60405180910390fd5b6001600360008473ffffffffffffffffffffffffffffffffffffffff1673ffffffffffffffffffffffffffffffffffffffff16815260200190815260200160002060008282540192505081905550816002600083815260200190815260200160002060006101000a81548173ffffffffffffffffffffffffffffffffffffffff021916908373ffffffffffffffffffffffffffffffffffffffff160217905550808273ffffffffffffffffffffffffffffffffffffffff16600073ffffffffffffffffffffffffffffffffffffffff167fddf252ad1be2c89b69c2b068fc378daa952ba7f163c4a11628f55a4df523b3ef60405160405180910390a4611b79600083836001611602565b5050565b6000604051905090565b600080fd5b600080fd5b60007fffffffff0000000000000000000000000000000000000000000000000000000082169050919050565b611bc681611b91565b8114611bd157600080fd5b50565b600081359050611be381611bbd565b92915050565b600060208284031215611bff57611bfe611b87565b5b6000611c0d84828501611bd4565b91505092915050565b60008115159050919050565b611c2b81611c16565b82525050565b6000602082019050611c466000830184611c22565b92915050565b600081519050919050565b600082825260208201905092915050565b60005b83811015611c86578082015181840152602081019050611c6b565b60008484015250505050565b6000601f19601f8301169050919050565b6000611cae82611c4c565b611cb88185611c57565b9350611cc8818560208601611c68565b611cd181611c92565b840191505092915050565b60006020820190508181036000830152611cf68184611ca3565b905092915050565b6000819050919050565b611d1181611cfe565b8114611d1c57600080fd5b50565b600081359050611d2e81611d08565b92915050565b600060208284031215611d4a57611d49611b87565b5b6000611d5884828501611d1f565b91505092915050565b600073ffffffffffffffffffffffffffffffffffffffff82169050919050565b6000611d8c82611d61565b9050919050565b611d9c81611d81565b82525050565b6000602082019050611db76000830184611d93565b92915050565b611dc681611d81565b8114611dd157600080fd5b50565b600081359050611de381611dbd565b92915050565b60008060408385031215611e0057611dff611b87565b5b6000611e0e85828601611dd4565b9250506020611e1f85828601611d1f565b9150509250929050565b600080600060608486031215611e4257611e41611b87565b5b6000611e5086828701611dd4565b9350506020611e6186828701611dd4565b9250506040611e7286828701611d1f565b9150509250925092565b600060208284031215611e9257611e91611b87565b5b6000611ea084828501611dd4565b91505092915050565b611eb281611cfe565b82525050565b6000602082019050611ecd6000830184611ea9565b92915050565b611edc81611c16565b8114611ee757600080fd5b50565b600081359050611ef981611ed3565b92915050565b60008060408385031215611f1657611f15611b87565b5b6000611f2485828601611dd4565b9250506020611f3585828601611eea565b9150509250929050565b600080fd5b600080fd5b7f4e487b7100000000000000000000000000000000000000000000000000000000600052604160045260246000fd5b611f8182611c92565b810181811067ffffffffffffffff82111715611fa057611f9f611f49565b5b80604052505050565b6000611fb3611b7d565b9050611fbf8282611f78565b919050565b600067ffffffffffffffff821115611fdf57611fde611f49565b5b611fe882611c92565b9050602081019050919050565b82818337600083830152505050565b600061201761201284611fc4565b611fa9565b90508281526020810184848401111561203357612032611f44565b5b61203e848285611ff5565b509392505050565b600082601f83011261205b5761205a611f3f565b5b813561206b848260208601612004565b91505092915050565b6000806000806080858703121561208e5761208d611b87565b5b600061209c87828801611dd4565b94505060206120ad87828801611dd4565b93505060406120be87828801611d1f565b925050606085013567ffffffffffffffff8111156120df576120de611b8c565b5b6120eb87828801612046565b91505092959194509250565b6000806040838503121561210e5761210d611b87565b5b600061211c85828601611dd4565b925050602061212d85828601611dd4565b9150509250929050565b600067ffffffffffffffff82111561215257612151611f49565b5b61215b82611c92565b9050602081019050919050565b600061217b61217684612137565b611fa9565b90508281526020810184848401111561219757612196611f44565b5b6121a2848285611ff5565b509392505050565b600082601f8301126121bf576121be611f3f565b5b81356121cf848260208601612168565b91505092915050565b600080604083850312156121ef576121ee611b87565b5b600083013567ffffffffffffffff81111561220d5761220c611b8c565b5b612219858286016121aa565b925050602083013567ffffffffffffffff81111561223a57612239611b8c565b5b612246858286016121aa565b9150509250929050565b7f4e487b7100000000000000000000000000000000000000000000000000000000600052602260045260246000fd5b6000600282049050600182168061229757607f821691505b6020821081036122aa576122a9612250565b5b50919050565b7f4552433732313a20617070726f76616c20746f2063757272656e74206f776e6560008201527f7200000000000000000000000000000000000000000000000000000000000000602082015250565b600061230c602183611c57565b9150612317826122b0565b604082019050919050565b6000602082019050818103600083015261233b816122ff565b9050919050565b7f4552433732313a20617070726f76652063616c6c6572206973206e6f7420746f60008201527f6b656e206f776e6572206f7220617070726f76656420666f7220616c6c000000602082015250565b600061239e603d83611c57565b91506123a982612342565b604082019050919050565b600060208201905081810360008301526123cd81612391565b9050919050565b7f4552433732313a2063616c6c6572206973206e6f7420746f6b656e206f776e6560008201527f72206f7220617070726f76656400000000000000000000000000000000000000602082015250565b6000612430602d83611c57565b915061243b826123d4565b604082019050919050565b6000602082019050818103600083015261245f81612423565b9050919050565b7f4552433732313a20696e76616c696420746f6b656e2049440000000000000000600082015250565b600061249c601883611c57565b91506124a782612466565b602082019050919050565b600060208201905081810360008301526124cb8161248f565b9050919050565b7f4552433732313a2061646472657373207a65726f206973206e6f74206120766160008201527f6c6964206f776e65720000000000000000000000000000000000000000000000602082015250565b600061252e602983611c57565b9150612539826124d2565b604082019050919050565b6000602082019050818103600083015261255d81612521565b9050919050565b7f4e487b7100000000000000000000000000000000000000000000000000000000600052603260045260246000fd5b600081905092915050565b7f7b00000000000000000000000000000000000000000000000000000000000000600082015250565b60006125d4600183612593565b91506125df8261259e565b600182019050919050565b7f20224e616d6522203a2000000000000000000000000000000000000000000000600082015250565b6000612620600a83612593565b915061262b826125ea565b600a82019050919050565b7f2200000000000000000000000000000000000000000000000000000000000000600082015250565b600061266c600183612593565b915061267782612636565b600182019050919050565b60008190508160005260206000209050919050565b600081546126a48161227f565b6126ae8186612593565b945060018216600081146126c957600181146126de57612711565b60ff1983168652811515820286019350612711565b6126e785612682565b60005b83811015612709578154818901526001820191506020810190506126ea565b838801955050505b50505092915050565b7f202d2d204e465420233a20000000000000000000000000000000000000000000600082015250565b6000612750600b83612593565b915061275b8261271a565b600b82019050919050565b600061277182611c4c565b61277b8185612593565b935061278b818560208601611c68565b80840191505092915050565b7f20226465736372697074696f6e223a2022416e2065706963204e465422000000600082015250565b60006127cd601d83612593565b91506127d882612797565b601d82019050919050565b7f2022696d61676522203a20000000000000000000000000000000000000000000600082015250565b6000612819600b83612593565b9150612824826127e3565b600b82019050919050565b7f697066733a2f2f00000000000000000000000000000000000000000000000000600082015250565b6000612865600783612593565b91506128708261282f565b600782019050919050565b7f7d00000000000000000000000000000000000000000000000000000000000000600082015250565b60006128b1600183612593565b91506128bc8261287b565b600182019050919050565b60006128d2826125c7565b91506128dd82612613565b91506128e88261265f565b91506128f48286612697565b91506128ff82612743565b915061290b8285612766565b91506129168261265f565b9150612921826127c0565b915061292c8261280c565b91506129378261265f565b915061294282612858565b915061294e8284612697565b91506129598261265f565b9150612964826128a4565b9150819050949350505050565b7f646174613a6170706c69636174696f6e2f6a736f6e3b6261736536342c000000600082015250565b60006129a7601d83612593565b91506129b282612971565b601d82019050919050565b60006129c88261299a565b91506129d48284612766565b915081905092915050565b60006020601f8301049050919050565b600082821b905092915050565b600060088302612a2c7fffffffffffffffffffffffffffffffffffffffffffffffffffffffffffffffff826129ef565b612a3686836129ef565b95508019841693508086168417925050509392505050565b6000819050919050565b6000612a73612a6e612a6984611cfe565b612a4e565b611cfe565b9050919050565b6000819050919050565b612a8d83612a58565b612aa1612a9982612a7a565b8484546129fc565b825550505050565b600090565b612ab6612aa9565b612ac1818484612a84565b505050565b5b81811015612ae557612ada600082612aae565b600181019050612ac7565b5050565b601f821115612b2a57612afb81612682565b612b04846129df565b81016020851015612b13578190505b612b27612b1f856129df565b830182612ac6565b50505b505050565b600082821c905092915050565b6000612b4d60001984600802612b2f565b1980831691505092915050565b6000612b668383612b3c565b9150826002028217905092915050565b612b7f82611c4c565b67ffffffffffffffff811115612b9857612b97611f49565b5b612ba2825461227f565b612bad828285612ae9565b600060209050601f831160018114612be05760008415612bce578287015190505b612bd88582612b5a565b865550612c40565b601f198416612bee86612682565b60005b82811015612c1657848901518255600182019150602085019450602081019050612bf1565b86831015612c335784890151612c2f601f891682612b3c565b8355505b6001600288020188555050505b505050505050565b7f4552433732313a207472616e736665722066726f6d20696e636f72726563742060008201527f6f776e6572000000000000000000000000000000000000000000000000000000602082015250565b6000612ca4602583611c57565b9150612caf82612c48565b604082019050919050565b60006020820190508181036000830152612cd381612c97565b9050919050565b7f4552433732313a207472616e7366657220746f20746865207a65726f2061646460008201527f7265737300000000000000000000000000000000000000000000000000000000602082015250565b6000612d36602483611c57565b9150612d4182612cda565b604082019050919050565b60006020820190508181036000830152612d6581612d29565b9050919050565b7f4552433732313a20617070726f766520746f2063616c6c657200000000000000600082015250565b6000612da2601983611c57565b9150612dad82612d6c565b602082019050919050565b60006020820190508181036000830152612dd181612d95565b9050919050565b7f4552433732313a207472616e7366657220746f206e6f6e20455243373231526560008201527f63656976657220696d706c656d656e7465720000000000000000000000000000602082015250565b6000612e34603283611c57565b9150612e3f82612dd8565b604082019050919050565b60006020820190508181036000830152612e6381612e27565b9050919050565b7f4e487b7100000000000000000000000000000000000000000000000000000000600052601260045260246000fd5b7f4e487b7100000000000000000000000000000000000000000000000000000000600052601160045260246000fd5b6000612ed382611cfe565b9150612ede83611cfe565b9250828201905080821115612ef657612ef5612e99565b5b92915050565b6000612f0782611cfe565b9150612f1283611cfe565b925082612f2257612f21612e6a565b5b828204905092915050565b6000612f3882611cfe565b9150612f4383611cfe565b9250828202612f5181611cfe565b91508282048414831517612f6857612f67612e99565b5b5092915050565b60006060820190508181036000830152612f898186611ca3565b9050612f986020830185611ea9565b612fa56040830184611d93565b949350505050565b600081519050919050565b600082825260208201905092915050565b6000612fd482612fad565b612fde8185612fb8565b9350612fee818560208601611c68565b612ff781611c92565b840191505092915050565b60006080820190506130176000830187611d93565b6130246020830186611d93565b6130316040830185611ea9565b81810360608301526130438184612fc9565b905095945050505050565b60008151905061305d81611bbd565b92915050565b60006020828403121561307957613078611b87565b5b60006130878482850161304e565b91505092915050565b7f4552433732313a206d696e7420746f20746865207a65726f2061646472657373600082015250565b60006130c6602083611c57565b91506130d182613090565b602082019050919050565b600060208201905081810360008301526130f5816130b9565b9050919050565b7f4552433732313a20746f6b656e20616c7265616479206d696e74656400000000600082015250565b6000613132601c83611c57565b915061313d826130fc565b602082019050919050565b6000602082019050818103600083015261316181613125565b905091905056fe4142434445464748494a4b4c4d4e4f505152535455565758595a6162636465666768696a6b6c6d6e6f707172737475767778797a303132333435363738392b2fa264697066735822122063b41c8f6386bd7c75b9e9d220bb207a4b15447fc591391dd4f1b6bb7b3ba7cd64736f6c634300081200332323232323232323232323232323232323232323232323232323200a2054686973206973206d79204e465420636f6e7472616374",
  "linkReferences": {},
  "deployedLinkReferences": {}
}